:1000000012C024C023C022C021C020C01FC01EC0F7
:100010001DC01CC01BC01AC019C018C017C016C014
:1000200015C014C013C011241FBECFE5D4E0DEBF3D
:10003000CDBF10E0A0E6B0E0EEE0FBE002C005902E
:100040000D92A437B107D9F72AD25FC5D9CFA89AA4
:1000500085E08A95F1F70000A89885E08A95F1F788
:10006000000008958C988D988E988F98A99AAA98D8
:1000700085E08A95F1F70000A89A85E08A95F1F766
:1000800000008799FECFA8980895CF93C82F6130BC
:1000900009F4E8DF8C9A8D9A8E9A8F9AA998AA987B
:1000A000A89AC4FF02C0949A01C09498C5FF02C0E8
:1000B000959A01C09598C6FF02C0969A01C096987D
:1000C000C7FF02C0979A01C0979882E48A95F1F71A
:1000D00000C0BDDFC0FF02C0949A01C09498C1FF68
:1000E00002C0959A01C09598C2FF02C0969A01C0BD
:1000F0009698C3FF02C0979A01C0979882E48A95A8
:10010000F1F700C0CF91A3CFA09AA19AA29A8C9A9E
:100110008D9A8E9A8F9A8FE295E70197F1F700C03A
:10012000000060E080E3B1DF87E090E20197F1F743
:1001300000C0000060E080E3A8DF87EC90E001975A
:10014000F1F700C0000060E080E39FDF87E090E20D
:100150000197F1F700C0000060E088E296DF9AE6C0
:100160009A95F1F700C061E088E28FDF8AE68A9510
:10017000F1F700C061E088E088DF9AE69A95F1F730
:1001800000C061E08FE081DF8AE68A95F1F700C068
:1001900061E086E07ADF9AE69A95F1F700C061E0C7
:1001A00081E073DF8AE68A95F1F700C00895CF9366
:1001B000C82F58DF8C9A8D9A8E9A8F9AA998AA9AEE
:1001C000A89AC4FF02C0949A01C09498C5FF02C0C7
:1001D000959A01C09598C6FF02C0969A01C096985C
:1001E000C7FF02C0979A01C0979831DFC0FF02C0D5
:1001F000949A01C09498C1FF02C0959A01C0959845
:10020000C2FF02C0969A01C09698C3FF02C0979A97
:1002100001C09798CF911BCF25DF8C988D988E9831
:100220008F98A99AAA9AA89885E08A95F1F7000074
:10023000A89A95E09A95F1F70000849B02C080E1AE
:1002400001C080E08599806286998064879B02C0A6
:10025000806801C08F77A89895E09A95F1F7000023
:10026000A89A95E09A95F1F70000849B02C08160FE
:1002700001C08E7F859B02C0826001C08D7F869BFE
:1002800002C0846001C08B7F879B02C08860089594
:10029000877F0895E7DE8C988D988E988F98A99A1D
:1002A000AA9885E08A95F1F70000A89A95E09A95BA
:1002B000F1F7000080B382958170859982608699FC
:1002C000846087998860A89895E09A95F1F7000076
:1002D000A89A95E09A95F1F7000084998061859934
:1002E000806286998064879B02C0806808958F77BA
:1002F0000895B8DE8C988D988E988F98A99AAA9AAE
:1003000085E08A95F1F70000A89A95E09A95F1F7B3
:10031000000080B38295817085998260869984609F
:1003200087998860A89895E09A95F1F70000A89AB7
:1003300095E09A95F1F70000849980618599806233
:1003400086998064879B02C0806808958F7708959E
:10035000CF93DF93EC0101C02ADF89918111FCCF9B
:10036000DF91CF91089561E080688FCE61E082E0F7
:100370008CCE8F7361E0806488CE8F7118CF80E05F
:10038000F8DF80E014DF8AE012DF80E010DF84E035
:100390000EDF81E10CDF8EE00ADF80E008DF80E025
:1003A00006DF88E0E6DF80E002DF8DE100DF85E048
:1003B000FEDE8FE1FCDE84E1FADE87E1F8DE80E03C
:1003C000F6DE80E0F4DE80E1D4DF84E0F0DE84E07D
:1003D000EEDE8FE1ECDE84E0EADE8EE0E8DE8EE049
:1003E000E6DE84E0E4DE80E0E2DE88E1C2DF80E099
:1003F000DEDE81E1DCDE8AE0DADE80E0D8DE8FE17D
:10040000D6DE81E1D4DE8EE0D2DE80E0D0DE80E296
:10041000B0DF84E0CCDE8EE0CADE85E1C8DE84E0B9
:10042000C6DE84E0C4DE84E0C2DE84E0C0DE80E0BC
:10043000BEDE88E29EDF84E0BADE84E0B8DE84E0DF
:10044000B6DE84E0B4DE85E1B2DE8EE0B0DE84E0CC
:10045000AEDE80E0ACDE80E38CDF84E0A8DE8FE1FE
:10046000A6DE84E0A4DE8FE1A2DE81E1A0DE81E1F0
:100470009EDE8FE19CDE80E09ADE88E37ADF80E01A
:1004800096DE8AE094DE85E192DE8AE090DE84E00A
:100490008EDE80E08CDE80E08ADE80E088CE0F9306
:1004A0001F93CF93DF9300D000D01F92CDB7DEB75C
:1004B0002BDE80E058DF80E690E04ADF2FEF80E718
:1004C00092E0215080409040E1F700C000002FEF03
:1004D00080E792E0215080409040E1F700C00000AA
:1004E00086E041DF2FEF89E698E12150804090407F
:1004F000E1F700C0000090DE182F8DE034DF812F7F
:1005000056DE2FEF89E698E1215080409040E1F7D8
:1005100000C0000034DF80E426DF10E0812F47DEDA
:100520001F5F1830D9F72FEF89E698E121508040FE
:100530009040E1F700C000008AE415DFABDE1F92B7
:100540008F938CE690E09F938F938E010F5F1F4FE8
:100550001F930F9314D0C801FBDE0F900F900F90E4
:100560000F900F900F9080E090E00F900F900F9001
:100570000F900F90DF91CF911F910F910895A0E1FF
:10058000B0E0E4ECF2E098C20F89188D86E08C832D
:100590001A8309838FEF9FE79E838D83AE01455EAB
:1005A0005F4F588B4F87698D7A8DCE01019608D0A9
:1005B000EF81F885E00FF11F10826096E4E098C2A9
:1005C000ACE0B0E0E5EEF2E069C27C016B018A01CB
:1005D000FC0117821682838181FFBAC1882483942B
:1005E000912C8C0E9D1EF7019381F60193FD859150
:1005F00093FF81916F01882309F4A6C1853239F4F4
:1006000093FD859193FF81916F01853221F4B701AC
:1006100090E0BAD1E8CF712C312C20E02032A8F440
:100620008B3261F028F4803251F0833271F40BC0C8
:100630008D3239F0803349F4216028C02260246073
:1006400025C0286023C0206121C027FD27C0382F86
:1006500030533A3078F426FF06C0FAE07F9E300D22
:100660001124732E13C08AE0389E300D1124332ECE
:1006700020620CC08E3221F426FD66C1206406C0C3
:100680008C3611F4206802C0883641F4F60193FDDF
:10069000859193FF81916F018111C0CF982F95545F
:1006A000933018F09052933028F40C5F1F4FFFE303
:1006B000F9830DC0833631F0833771F0833509F04B
:1006C0005AC022C0F801808189830E5F1F4F6624C3
:1006D0006394712C540114C02801F2E04F0E511C98
:1006E000F801A080B18026FF03C0672D70E002C032
:1006F0006FEF7FEFC5012C873CD13C0182012C8537
:100700006FE7262E222217C02801F2E04F0E511C5F
:10071000F801A080B18026FF03C0672D70E002C001
:100720006FEF7FEFC5012C8719D13C012C8550E874
:10073000252E222A820123FC1AC005C0B70180E2BF
:1007400090E022D13A94832D90E068167906B0F3B8
:100750000EC0F50127FC859127FE81915F01B7014D
:1007600090E012D131103A94F1E06F1A71086114DF
:10077000710479F7E6C0843611F0893639F5F8014D
:1007800027FF07C060817181828193810C5F1F4FB9
:1007900008C060817181882777FD8095982F0E5F52
:1007A0001F4F4FE6642E622297FF09C090958095F7
:1007B000709561957F4F8F4F9F4FF0E86F2A2AE029
:1007C00030E0A4010DD1A82EA81843C0853731F41C
:1007D0003FEEB32EB2222AE030E024C099EFB92ECA
:1007E000B2228F36B9F020F4883509F0ADC00DC0C3
:1007F000803721F0883709F0A7C002C020E1B22A73
:10080000B4FE0BC084E0B82A08C024FF09C0E6E0AB
:10081000BE2A06C028E030E005C020E130E002C07A
:1008200020E132E0F801B7FE07C06081718182816A
:1008300093810C5F1F4F06C06081718180E090E062
:100840000E5F1F4FA401CCD0A82EA8188FE7682EEA
:100850006B2066FE0BC0362D3E7FA71450F464FE5D
:100860000AC062FC08C0362D3E7E05C0BA2C362D6B
:1008700003C0BA2C01C0B72C34FF0DC0FE01EA0D35
:10088000F11D8081803311F4397E09C032FF06C02A
:10089000B394B39404C0832F867809F0B39433FDE6
:1008A00013C030FF0EC07A2CB31458F4730C7B18AD
:1008B000B32C07C0B70180E290E03C8765D0B394C9
:1008C0003C85B314B8F304C0B31410F43B1801C052
:1008D000312C34FF11C0B70180E390E03C8754D045
:1008E0003C8532FF1CC031FF03C088E590E002C0A8
:1008F00088E790E0B7010CC0832F867881F031FD46
:1009000002C080E201C08BE237FD8DE2B70190E0CA
:100910003BD005C0B70180E390E036D07A94A714AD
:10092000C8F3AA94F401EA0DF11DB701808190E0AB
:100930002BD0A110F6CF05C0B70180E290E024D003
:100940003A943110F9CF4FCEF7012681378102C09A
:100950002FEF3FEFC9012C96E2E1BCC0FC010590EE
:10096000615070400110D8F7809590958E0F9F1FB1
:100970000895FC016150704001900110D8F78095F6
:1009800090958E0F9F1F08950F931F93CF93DF9322
:100990008C01EB018B8181FD03C00FEF1FEF1AC0AB
:1009A00082FF0DC02E813F818C819D8128173907E0
:1009B00064F4E881F9810193F983E88306C0E8854E
:1009C000F985802F0995892B41F78E819F810196AA
:1009D0009F838E83C801DF91CF911F910F9108955E
:1009E000FA01AA27283051F1203181F1E8946F9360
:1009F0006E7F6E5F7F4F8F4F9F4FAF4FB1E03ED006
:100A0000B4E03CD0670F781F891F9A1FA11D680FA3
:100A1000791F8A1F911DA11D6A0F711D811D911DD6
:100A2000A11D20D009F468943F912AE0269F11244B
:100A30003019305D3193DEF6CF010895462F4770AF
:100A4000405D4193B3E00FD0C9F7F6CF462F4F700A
:100A5000405D4A3318F0495D31FD4052419302D068
:100A6000A9F7EACFB4E0A69597958795779567950E
:100A7000BA95C9F700976105710508959B01AC010E
:100A80000A2E06945795479537952795BA95C9F735
:100A9000620F731F841F951FA01D08952F923F9210
:100AA0004F925F926F927F928F929F92AF92BF927E
:100AB000CF92DF92EF92FF920F931F93CF93DF932A
:100AC000CDB7DEB7CA1BDB0B0FB6F894DEBF0FBE87
:100AD000CDBF09942A88398848885F846E847D84D4
:100AE0008C849B84AA84B984C884DF80EE80FD80D6
:100AF0000C811B81AA81B981CE0FD11D0FB6F8944C
:0E0B0000DEBF0FBECDBFED010895F894FFCF0C
:100B0E0068656C6C6F20776F726C6400493D2530A0
:040B1E003258480001
:00000001FF
